:020000040800F2
:10000000E83D002479030008653400088D330008BA
:10001000613400087F040008B1640008000000009B
:10002000000000000000000000000000C1390008CE
:100030001905000800000000F7360008D53900084F
:100040009303000893030008930300089303000838
:100050009303000893030008930300089303000828
:100060009303000893030008930300089303000818
:100070009303000893030008930300089303000808
:1000800093030008930300089303000893030008F8
:1000900093030008930300089303000893030008E8
:1000A00093030008930300089303000893030008D8
:1000B00093030008930300089303000893030008C8
:1000C00093030008930300089303000893030008B8
:1000D00093030008930300089303000893030008A8
:1000E0009303000893030008000000009303000836
:1000F0009303000893030008930300089303000888
:100100009303000893030008930300089303000877
:100110009303000893030008930300089303000867
:100120009303000893030008930300089303000857
:100130009303000893030008930300089303000847
:1001400000000000000000000000000000000000AF
:100150009303000893030008930300089303000827
:100160009303000893030008930300089303000817
:100170009303000893030008930300089303000807
:1001800093030008930300089303000893030008F7
:1001900093030008930300089303000893030008E7
:1001A00093030008930300089303000893030008D7
:1001B00093030008930300089303000893030008C7
:1001C0009303000893030008793400086934000899
:1001D0009303000889340008930300089303000880
:1001E0009303000893030008930300089303000897
:1001F0009303000893030008930300089303000887
:100200009303000893030008930300089303000876
:100210009303000893030008930300089303000866
:1002200093030008930300089303000800000000F4
:1002300093030008930300080000000093030008E4
:100240009303000893030008930300089303000836
:100250009303000893030008930300089303000826
:100260009303000893030008930300089303000816
:1002700093030008930300089303000800000000A4
:100280009303000893030008930300080000000094
:10029000000000009303000800F002F800F05CF892
:1002A0000AA090E8000C82448344AAF10107DA45D1
:1002B00001D100F051F8AFF2090EBAE80F0013F0C7
:1002C000010F18BFFB1A43F00103184758620000E2
:1002D000786200000A444FF0000C10F8013B13F064
:1002E000070408BF10F8014B1D1108BF10F8015B8F
:1002F000641E05D010F8016B641E01F8016BF9D182
:1003000013F0080F1EBF10F8014BAD1C0C1B09D1D8
:100310006D1E58BF01F801CBFAD505E014F8016B4A
:1003200001F8016B6D1EF9D59142D6D370470000DC
:100330000023002400250026103A28BF78C1FBD8EE
:10034000520728BF30C148BF0B6070471FB506F089
:10035000D7F81FBD10B510BD00F058F81146FFF7D3
:10036000F5FF06F0C3F800F076F803B4FFF7F2FFEC
:1003700003BC00F07DF800000948804709480047A9
:10038000FEE7FEE7FEE7FEE7FEE7FEE7FEE7FEE745
:10039000FEE7FEE704480549054A064B70470000A2
:1003A000B53A000899020008E81D0024E83D002441
:1003B000E82D0024E82D00244FF0000200B513467C
:1003C00094469646203922BFA0E80C50A0E80C5075
:1003D000B1F12001BFF4F7AF090728BFA0E80C5026
:1003E00048BF0CC05DF804EB890028BF40F8042B1F
:1003F00008BF704748BF20F8022B11F0804F18BF8C
:1004000000F8012B7047704770477047754600F041
:100410002BF8AE4605006946534620F00700854696
:1004200018B020B5FFF7B6FFBDE820404FF000063A
:100430004FF000074FF000084FF0000B21F00701CC
:10044000AC46ACE8C009ACE8C009ACE8C009ACE80F
:10045000C0098D46704710B50446AFF300802046B2
:10046000BDE81040FFF781BF00487047881D002499
:1004700001491820ABBEFEE726000200704700BF0E
:10048000FEE70346042B15D007DC7BB1012B0ED011
:10049000022B0DD0032B12D10BE0202B0BD0212BE4
:1004A0000AD0222B09D0232B09D107E008E007E06E
:1004B00006E005E004E003E002E001E000E000BF48
:1004C00000BF0020704700207047000010B50022D8
:1004D0000449054803F007FE0449034803F0F4FD0E
:1004E000002010BD840E0024A801002484060024EE
:1004F00070B504460D462146034803F0E5FD024869
:1005000003F0AEFD002070BDA801002410B5034625
:100510000C460021084610BD704772B600BFFEE7CA
:1005200070B50A480468001D0568001D066834445B
:1005300054B108220649204602F02AFF0422044949
:100540001031284602F024FF70BD000000E8F11FC2
:10055000F600002470B5044600F014F9064625465E
:10056000681C10B104480078054400BF00F00AF987
:10057000801BA842FAD370BD2C010024F8B50246B6
:100580000B4600216F4DD7E001278F401E6806EA19
:100590000704002C72D01E7906F00306012E04D049
:1005A0001E7906F00306022E13D190684F00032631
:1005B000BE40B0434F00DE68BE403043906050689C
:1005C00001268E40B0431E79C6F300168E4030439C
:1005D00050601E7906F00306032E09D0D0684F0044
:1005E0000326BE40B0434F009E68BE403043D060FB
:1005F0001E7906F00306022E13D1CF0802F1200661
:1006000056F827004E07F70E0F26BE40B0434F079F
:10061000FF0E1E69BE403043CF0802F1200646F8A7
:10062000270010684F000326BE40B0431E7906F035
:1006300003064F00BE40304310605E6806F440364B
:10064000002E78D000BF404E366846F002063E4F7E
:100650003E603E46366806F00206009600BF00BFC8
:100660003A4E8F0856F827008E07370F0F26BE40E8
:10067000B043374EB24202D100262EE05BE0354E49
:10068000B24201D1012628E0334EB24201D1022606
:1006900023E0324EB24201D103261EE0304EB24278
:1006A00001D1042619E02F4EB24201D1052614E0F3
:1006B0002D4EB24201D106260FE02C4EB24201D19E
:1006C00007260AE02A4EB24201D1082605E0294E4B
:1006D000B24201D1092600E00A268F073F0FBE4033
:1006E00030431A4E8F0846F827004FF0B046306866
:1006F000A0435E6806F4801606B120434FF0B04672
:1007000030607068A0435E6806F4001606B12043AE
:100710004FF0B04670606868A0435E6806F400362B
:1007200006B1204368602868A0435E6806F48036FE
:1007300006B120432860491C1E68CE40002E7FF47D
:1007400023AFF8BD80000058F44402580804005854
:10075000000002580004025800080258000C025819
:10076000001002580014025800180258001C0258C9
:10077000002002580024025801480068000C70470D
:100780000010005C0148006870470000240100244C
:100790000348006803490978084401490860704724
:1007A000240100242C01002410B5032000F0BCF823
:1007B00002F090F810490968C1F303210F4A515C17
:1007C00001F01F0120FA01F40B48006800F00F004F
:1007D0001146085C00F01F0024FA00F00849086088
:1007E00008480460002000F00FF808B1012010BD97
:1007F00000F036F80020FAE71844025812650008A5
:10080000340100243001002470B5044611480078FA
:1008100008B9012070BD0F4800784FF47A71B1FB20
:10082000F0F00D490968B1FBF0F5284602F094FD9F
:1008300008B10120EEE7102C07D200222146501EFD
:1008400000F034F80548046001E00120E2E70020F0
:10085000E0E700002C0100243001002428010024DE
:1008600008B500BF0648006840F00200044908606F
:100870000846006800F00200009000BF00BF08BDFD
:10088000F44402580146084600280DDB00BF00BFB3
:1008900000F01F0301229A4043099B0003F1E0236B
:1008A000C3F8002100BF00BF00BF70472DE9F05F13
:1008B00080460D46164605F0FDFD074639462A4698
:1008C000334601F00700C0F1070ABAF1040F02D95C
:1008D0004FF0040A01E0C0F1070AD14600F1040A12
:1008E000BAF1070F02D24FF0000A01E0A0F1030AAB
:1008F000D4464FF0010A0AFA09FAAAF1010A0AEAF3
:10090000020A0AFA0CFA4FF0010B0BFA0CFBABF1DE
:10091000010B0BEA030B4AEA0B042146404605F0A3
:10092000D1FDBDE8F09F000000BF00F00702064BBC
:1009300019684FF6FF031940044B0B4343EA0221A9
:10094000014B196000BF70470CED00E00000FA0594
:1009500001460A680120C1F8D804002081F8CC04BF
:10096000906940F000609061506D024B18435065F3
:100970000020704703000010704702461068416273
:1009800000207047F0B5034615461868446A21B93F
:1009900044EA05401E68B06219E01868806A04EBFA
:1009A0001044002208E0186800F5827050F8220018
:1009B00004EB1044501CC2B2481E9042F3D844EAE3
:1009C0000547186800F582704E1E40F8267000201A
:1009D000F0BD10B50446D4F8E00404F089F810BD69
:1009E00070B504460D4605EBC50304F1140101EB97
:1009F0008301CA682946D4F8E00403F074FF70BD8F
:100A000070B504460D4605EBC50304F5157101EB01
:100A10008301CA682946D4F8E00403F0E8FF70BDFA
:100A200010B50446D4F8E00404F065F810BD2DE9D3
:100A3000F04104460D4605F08000802808D105F0FD
:100A40000F0000EBC00104F1140000EB810607E089
:100A500005F00F0000EBC00104F5157000EB8106F6
:100A60003146206805F0E6FA07463846BDE8F081D1
:100A700070B504460E4606F0800080280AD106F0C4
:100A80000F0000EBC00104F1140000EB8105012010
:100A9000687009E006F00F0000EBC00104F5157066
:100AA00000EB81050020687006F00F00287000BF81
:100AB00094F89404012801D1022070BD012084F82B
:100AC000940400BF2946206804F04CFE00BF0020BB
:100AD00084F8940400BF00BFEFE770B504460E46EB
:100AE00006F00F002179884201D9012070BD06F07F
:100AF000800080280AD106F00F0000EBC00104F14D
:100B0000140000EB81050120687009E006F00F0079
:100B100000EBC00104F5157000EB81050020687042
:100B20000020A87006F00F00287000BF94F894040D
:100B3000012801D10220D9E7012084F8940400BFE4
:100B40002946206805F008F800BF002084F89404C6
:100B500000BF00BFCAE7024601F00F0000EBC00370
:100B600002F5157000EB8300406970472DE9F047EE
:100B700005460E4690461F464FF0000906F08000DD
:100B800080280AD106F00F0000EBC00105F1140027
:100B900000EB81040120607009E006F00F0000EB1B
:100BA000C00105F5157000EB81040020607006F0AF
:100BB0000F002070C4F808802771607808B1207891
:100BC0006083022F01D10020607100BF95F894046A
:100BD000012802D10220BDE8F087012085F89404A5
:100BE00000BF2146286804F0C7FC00BF002085F83C
:100BF000940400BF4846EEE72DE9F04105460E4655
:100C00001746984606F00F0000EBC00105F5157079
:100C100000EB8104E760C4F8108000206061607020
:100C200006F00F002070A879012800D1E761AA79A9
:100C30002146286805F024F80020BDE8F08170B551
:100C400004460D4605F00F002179884201D90120A4
:100C500070BD05F0800080280AD105F00F0000EB80
:100C6000C00104F1140000EB81060120707007E060
:100C700005EBC50104F5157000EB810600207070CE
:100C80000120B07005F00F00307000BF94F894049C
:100C9000012801D10220DBE7012084F8940400BF81
:100CA0003146206804F09FFF05F00F0028B9A179B4
:100CB00004F29C42206804F017FF00BF002084F873
:100CC000940400BF00BFC3E72DE9F04105460E467E
:100CD0001746984606F00F0000EBC00105F114001E
:100CE00000EB8104E760C4F81080002060610120FF
:100CF000607006F00F002070A879012800D1E7612C
:100D0000AA792146286804F0BBFF0020BDE8F081E5
:100D10002DE9FE4F0446D4F800B05E46206805F089
:100D20006BFA002874D1206805F0A5FA08B9BDE86F
:100D3000FE8F40F608008059C0F30D20C4F8D4049B
:100D4000206805F098FA00F00200022805D120681A
:100D5000406900F0020021684861206805F08BFAC4
:100D600000F01000102845D12068806920F01000A4
:100D700021688861DBF8209009F00F0000EBC001CA
:100D800004F5157000EB810AC9F3434002281AD11B
:100D900047F6F07009EA000030B3C9F30A1258466A
:100DA000DAF80C1005F06CFAC9F30A11DAF80C0045
:100DB0000844CAF80C00C9F30A11DAF81400084410
:100DC000CAF8140010E0C9F3434006280CD10822E9
:100DD00004F29C41584605F053FAC9F30A11DAF8B7
:100DE00014000844CAF814002068806940F010001C
:100DF00021688861206805F03EFA00F40020B0F513
:100E0000002F7BD10025206805F005FA029072E0E2
:100E100003E3029800F00100002868D0E9B22068DE
:100E200005F01CFA804608F0010048B1012106F5E2
:100E3000306000EB451081602946204602F05EFBE1
:100E400008F00800082809D1082106F5306000EBF9
:100E5000451081602946204602F01EFB08F0100074
:100E6000102805D1102106F5306000EB4510816097
:100E700008F00200022824D1DBF8140000F0800002
:100E8000802807D140F60400805940F4806140F684
:100E90000400815105EBC50104F5157000EB810AD2
:100EA0009AF80300012806D100208AF80300E9B26D
:100EB000204600F0BDFA022106F5306000EB451037
:100EC000816008F02000202805D1202106F530603F
:100ED00000EB4510816008F40050B0F5005F06D1CA
:100EE0004FF4005106F5306000EB451081606D1C39
:100EF000029840080290029800288AD1206805F0E4
:100F0000BAF900F48020B0F5802F7DD1206805F07B
:100F100078F9029000259AE0029800F0010000287C
:100F200073D0E9B2206805F080F9804608F001002E
:100F3000F0B305F00F0101208840019040F6340025
:100F40008159019821EA000040F6340188510121BD
:100F500006F5106000EB45108160A079012824D1CE
:100F600005EBC50104F1140000EB810005EBC5029F
:100F7000C16804F1140000EB82008068014405EBB5
:100F8000C50204F1140000EB8200C1606DB905EBED
:100F9000C50104F1140000EB8100006928B904F2D6
:100FA0009C420121206804F09FFDE9B2204600E048
:100FB00001E0FFF715FD08F00800082805D1082119
:100FC00006F5106000EB4510816008F01000102855
:100FD00005D1102106F5106000EB4510816008F086
:100FE0004000402805D1402106F5106000EB451077
:100FF000816008F0020002281DD12946584605F0FC
:10100000BEF805EBC50101E025E01CE004F1140089
:1010100000EB810A9AF80300012806D100208AF823
:101020000300E9B2204600F0FAF9022106F510604B
:1010300000EB4510816008F08000802803D129462C
:10104000204602F0FDFA6D1C0298400802900298BA
:1010500000287FF461AF206805F00DF900F0004032
:10106000B0F1004F1CD140F60400805920F001017E
:1010700040F60400815194F8CC04012807D10020E7
:1010800084F8CC0400212046FFF776FC02E02046DD
:1010900000F00AFB2068406900F0004021684861C8
:1010A000206805F0E8F800F40060B0F5006F0ED19C
:1010B00040F60800805900F0010010B1204600F011
:1010C0004BFB2068406900F400602168486120689B
:1010D00005F0D1F800F00060B0F1006F19D1206880
:1010E000406900F000602168486194F8CC0468B958
:1010F000012084F8CC042068406DC0F38300C4F85C
:10110000D00401212046FFF737FC02E0204600F022
:1011100023FB206805F0AFF800F48050B0F5805F45
:101120007ED140F60400805920F0010140F6040011
:1011300081511021206805F022F8002732E04FF697
:101140007F3106F5106000EB4710816006F51060F6
:1011500000EB4710006820F4001106F5106000EB6A
:10116000471001604FF67F3106F5306000EB471005
:10117000816006F5306000EB4710006820F4001134
:1011800006F5306000EB4710016006F5306000EBBB
:101190004710006840F0006106F5306000EB471032
:1011A00001607F1C2079B842C9D840F61C008059E4
:1011B00040F0011140F61C008151E07B70B1D6F87F
:1011C000840840F00B01C6F8841840F644008059AA
:1011D00040F00B0140F6440081510FE040F614004E
:1011E000805942F22B01084340F614018851081F30
:1011F000805940F00B014FF401608151D6F800088E
:1012000020F4FE60C6F80008A17904F29C42206830
:1012100004F06AFC2068406900F48050216800E016
:1012200000E04861206805F026F800F40050B0F5B1
:10123000005F17D1206804F007FA206804F0C9FFA6
:10124000E07101F021FB0090E2792068009905F03F
:1012500099F8204600F010FA2068406900F4005028
:1012600021684861206805F006F800F008000828A9
:1012700008D1204600F01FFA2068406900F00800FD
:1012800021684861206804F0F6FF00F080008028A3
:1012900018D1DBF8180020F08000CBF818000125E9
:1012A0000DE005EBC50104F5157000EB8100C07879
:1012B000012803D1E9B22046FFF7B9FB6D1C207964
:1012C000A842EED8206804F0D6FF00F48010B0F5F4
:1012D000801F2DD1012522E006F5106000EB45109E
:1012E000D0F8009005EBC50104F1140000EB81007B
:1012F0000079012812D109F00040B0F1004F0DD162
:10130000012105EBC50204F1140000EB8200C1705D
:10131000E8B240F080012046FFF789FB6D1C207980
:10132000A842D9D82068406900F48010216848613B
:10133000206804F0A0FF00F40010B0F5001F44D1B5
:10134000012538E006F5306000EB4510D0F800903C
:1013500005EBC50104F5157000EB8100007901284B
:1013600028D109F00040B0F1004F23D109F48030BA
:1013700094F8D41401F0010188421BD1012105EB3E
:10138000C50204F5157000EB8200C170DBF818008F
:1013900040F08000CBF81800DBF8140000F080006B
:1013A00040B940F60400805940F4007140F6040052
:1013B000815103E06D1C2079A842C3D800BF20688A
:1013C000406900F4001021684861206804F053FF70
:1013D00000F08040B0F1804F08D12046FFF7F9FAC5
:1013E0002068406900F0804021684861206804F06E
:1013F00042FF00F0040004280FD12068D0F80490C8
:1014000009F00400042802D12046FFF709FB2068F8
:10141000406840EA09002168486000BF87E470B571
:1014200004460D462946D4F8E00403F0D3FB70BD12
:1014300070B504460D462946D4F8E00403F0EEFBEF
:1014400070BD38B504460CB9012038BD94F8950438
:1014500028B9002084F89404204600F0A1F8032065
:1014600084F89504206804F037FB207C8DF8000098
:1014700094E80F0004F0FCF820B1022084F89504F1
:101480000120E2E70021206804F02AFF20B10220B9
:1014900084F895040120D8E7002531E0012105EB0F
:1014A000C50204F1140000EB8200417005EBC50198
:1014B00004F1140000F8215005EBC50100EB810098
:1014C0004583002105EBC50204F1140000EB820006
:1014D000017105EBC50204F1140000EB820081608C
:1014E00005EBC50204F1140000EB8200C16005EBBE
:1014F000C50204F1140000EB82000161681CC5B252
:101500002079A842CADC00252AE0002105EBC502AB
:1015100004F5157000EB8200417005EBC50104F580
:10152000157000F82150002105EBC50200EB820088
:10153000017105EBC50204F5157000EB82008160B6
:1015400005EBC50204F5157000EB8200C16005EBE8
:10155000C50204F5157000EB82000161681CC5B27C
:101560002079A842D1DC207C8DF8000094E80F009F
:1015700004F0C2F920B1022084F89504012064E748
:1015800000206074012084F89504207B012802D19A
:101590002046FFF7DDF9206804F09CF9002054E7AD
:1015A00010B5B8B00446142132A8FEF705FFC021DB
:1015B00002A8FEF701FF2D492068884254D14FF45C
:1015C00080210020CDE902104FF44010249002A8A1
:1015D00000F016F908B1FEF7A0FF00F007F900BF10
:1015E0002348006840F0010021490860084600686F
:1015F00000F00100019000BF00BF4FF4C0503290D6
:101600000220339000203490032035900A20369039
:1016100032A91848FEF7B2FF00BF15480838006825
:1016200040F000601249083908600846006800F080
:101630000060019000BF00BF002203216220FFF77D
:1016400035F96220FFF71EF9002203216320FFF71E
:101650002DF96320FFF716F9002203216520FFF71B
:1016600025F96520FFF70EF938B010BD00000840DD
:10167000E04402580000025870B504460125E079A4
:1016800008B9002506E0E079022801D1012501E032
:10169000FEF743FF2946D4F8E00403F068FBD4F8D2
:1016A000E00403F00FFB70BD10B50446D4F8E0046D
:1016B00003F03EFB10BD10B50446D4F8E00403F07F
:1016C00042FB10BD70B504460D4600BF94F894046B
:1016D000012801D1022070BD012084F8940400BFCC
:1016E00065742946206804F02FFE00BF002084F8AE
:1016F000940400BF00BFEEE710B5044604F29C411D
:10170000D4F8E00403F04AFB10BD70B50446256828
:1017100000BF94F89404012801D1022070BD01207B
:1017200084F8940400BFE86800F0400030B1607BAA
:10173000012803D1A86B40F48030A863206804F02E
:10174000EFFC206804F0B4F800BF002084F8940493
:1017500000BF00BFE2E7000010B50446D4F8E00483
:1017600003F079FB2068D0F8000E40F001002168FA
:10177000C1F8000EE07A28B10348006840F0060086
:101780000149086010BD000010ED00E070B504468E
:1017900015480068C0F3800048B91348006800F09D
:1017A0000700A04201D0012070BD0020FCE70E48D8
:1017B000006820F0070020430B490860FEF7E2FFB5
:1017C000054607E0FEF7DEFF401BB0F57A7F01D942
:1017D0000120E9E7044808380068C0F340300028D9
:1017E000F0D00020E0E700000C48025803480068F1
:1017F00040F0807001490860704700000C480258B2
:101800002DE9F04104460025A8464FF00062D4E9D6
:10181000001011400020134659404040014331D18F
:10182000A06E48B1B0F5801F0DD0B0F5001F11D0EB
:10183000B0F5401F16D114E0F948006840F40030BC
:10184000F749086010E0022104F1080001F054FF9C
:10185000054609E0022104F1280001F0FFFF0546DA
:1018600002E001E0012500BF00BF55B9EC4824307B
:10187000006820F44010A16E0843E9492431086053
:1018800000E0A8464FF48073D4E90010194000200E
:101890005940404001432ED1A06D05281BD2DFE8FE
:1018A00000F0030A11181900DD48006840F4003008
:1018B000DB49086011E0002104F1080001F01CFF81
:1018C00005460AE0002104F1280001F0C7FF0546A3
:1018D00003E002E001E0012500BF00BF55B9D04898
:1018E0002430006820F00700A16D0843CC49243162
:1018F000086000E0A8464FF40073D4E900101940D6
:10190000002059404040014334D1E06D802818D078
:1019100003DC40B140281DD10CE0C02818D0B0F540
:10192000807F17D115E0BE48006840F40030BC4904
:10193000086011E0002104F1080001F0DDFE054619
:101940000AE0002104F1280001F088FF054603E0C9
:1019500002E001E0012500BF00BF55B9B0482430C6
:10196000006820F4E070E16D0843AD49243108605F
:1019700000E0A8464FF48063D4E90010194000202D
:1019800059404040014339D1D4F8A800B0F5800F48
:101990001AD004DC50B1B0F5001F1ED10DE0B0F537
:1019A000C00F18D0B0F5000F17D115E09C480068A3
:1019B00040F400309A49086011E0002104F1080069
:1019C00001F09AFE05460AE0002104F1280001F02A
:1019D00045FF054603E002E001E0012500BF00BF2E
:1019E0005DB98F482C30006820F46000D4F8A8104E
:1019F00008438B492C31086000E0A8464FF4006290
:101A0000D4E90010114000201346594040400143E2
:101A100039D1D4F8AC00B0F1007F1AD004DC50B159
:101A2000B0F1807F1ED10DE0B0F1407F18D0B0F151
:101A3000806F17D115E07A48006840F4003078498B
:101A4000086011E0002104F1080001F055FE054690
:101A50000AE0002104F1280001F000FF054603E040
:101A600002E001E0012500BF00BF5DB96C482C30E9
:101A7000006820F0E060D4F8AC10084368492C31CD
:101A8000086000E0A8464FF00073D4E90001184058
:101A9000002158404940084328D1E06CA8B11028E3
:101AA00004D0202809D0302810D10DE05C4800680F
:101AB00040F400305A4908600AE0022104F10800AD
:101AC00001F01AFE054603E002E001E0012500BF37
:101AD00000BF55B952482030006820F03000E16C5A
:101AE00008434F492031086000E0A8464FF4805376
:101AF000D4E900101940002059404040014337D13B
:101B0000206EB0F5005F1AD004DC50B1B0F5805FF4
:101B10001ED10DE0B0F5405F18D0B0F5804F17D161
:101B200015E03F48006840F400303D49086011E08E
:101B3000002104F1080001F0DFFD05460AE0002164
:101B400004F1280001F08AFE054603E002E001E00E
:101B5000012500BF00BF55B931482430006820F48A
:101B6000E040216E08432E492431086000E0A84679
:101B70004FF40053D4E90010194000205940404070
:101B8000014335D1606EB0F5403F1ED007DC68B12F
:101B9000B0F5803F0BD0B0F5003F19D10EE0B0F5A5
:101BA000802F13D0B0F5A02F12D110E012E0012148
:101BB00004F1080001F0A0FD05460BE0012104F14D
:101BC000280001F04BFE054604E003E002E001E0DE
:101BD000012500BF00BF55B911482430006820F42A
:101BE000E020616E08430E492431086000E0A846F9
:101BF0004FF48043D4E90001184000215840494087
:101C0000084337D1D4F8B000B0F1405F20D009DCF0
:101C100078B1B0F1805F0DD0B0F1005F1BD110E062
:101C20002C440258B0F1804F13D0B0F1A04F12D124
:101C300010E012E0012104F1080001F05DFD05460D
:101C40000BE0012104F1280001F008FE054604E044
:101C500003E002E001E0012500BF00BF4DB9FE48EE
:101C6000006820F0E040D4F8B0100843FA4908605A
:101C700000E0A8464FF40042D4E9001011400020D3
:101C8000134659404040014329D1206FB0B1B0F113
:101C9000805F03D0B0F1005F11D108E0EE482C382E
:101CA000006840F40030EC492C39086009E001215B
:101CB00004F1080001F020FD054602E001E00125E5
:101CC00000BF00BF55B9E4480838006820F0405014
:101CD000216F0843E0490839086000E0A8464FF04A
:101CE0008072D4E900101140002013465940404052
:101CF00001432AD1A06CB8B1012804D002280BD02E
:101D0000032812D10FE0D4482C38006840F400308A
:101D1000D1492C3908600AE0022104F1080001F0E1
:101D2000EBFC054603E002E001E0012500BF00BF37
:101D300055B9C9480C38006820F00300A16C08436D
:101D4000C5490C39086000E0A8464FF48002D4E988
:101D500000011040002113465840494008437DD1FE
:101D6000BE48006840F48070BC490860FEF70AFD78
:101D7000064606E0FEF706FD801B642801D9032510
:101D800005E0B648006800F480700028F2D000BF7B
:101D900085BBB1481830006800F44070B4F8B41046
:101DA00001F44071884213D0AB481830006820F429
:101DB0004077A9481830006840F48030A6491831AF
:101DC00008600846006820F4803008600846076014
:101DD000D4F8B400B0F5807F15D1FEF7D3FC0646E9
:101DE00009E0FEF7CFFC801B41F28831884202D91E
:101DF000032507E038E0984818300068C0F3400039
:101E00000028EED000BF55BB00BFB4F8B40000F40A
:101E10004070B0F5407F0ED18F484838006820F4FC
:101E20007C518F4AD4F8B400104041EA10108A491E
:101E30004839086007E088484838006820F47C503A
:101E4000854948390860844818300068B4F8B410EF
:101E5000C1F30B0108438049183101E005E001E0BE
:101E6000086002E0A84600E0A8460122D4E900018B
:101E700010400021134658404940084330D1E06FDC
:101E800018281AD005DC48B1082808D0102817D126
:101E90000CE0202812D0282812D110E012E00121F5
:101EA00004F1080001F028FC05460BE0012104F1D3
:101EB000280001F0D3FC054604E003E002E001E065
:101EC000012500BF00BF55B96348001F006820F01E
:101ED0003800E16F08436049091F086000E0A84628
:101EE0000222D4E900011040002113465840494025
:101EF000084329D1A06F062816D2DFE800F00304BA
:101F00000B12131412E0012104F1080001F0F4FB9C
:101F100005460BE0012104F1280001F09FFC054675
:101F200004E003E002E001E0012500BF00BF55B975
:101F30004948001F006820F00700A16F0843464988
:101F4000091F086000E0A8460423D4E900101940E6
:101F5000002059404040014329D1D4F8940006287C
:101F600016D2DFE800F003040B12131412E0012173
:101F700004F1080001F0C0FB05460BE0012104F16B
:101F8000280001F06BFC054604E003E002E001E0FC
:101F9000012500BF00BF4DB92F48006820F00700A1
:101FA000D4F8941008432C49086000E0A846202388
:101FB000D4E900011840002158404940084337D176
:101FC000D4F89000B0F1405F1ED007DC68B1B0F1EA
:101FD000805F0BD0B0F1005F19D10EE0B0F1804FFF
:101FE00013D0B0F1A04F12D110E012E0002104F1A3
:101FF000080001F081FB05460BE0022104F12800F6
:1020000001F02CFC054604E003E002E001E00125BC
:1020100000BF00BF5DB91048001F006820F0E0401D
:10202000D4F8901008430C49091F086000E0A84646
:102030004023D4E90010194000205940404001439A
:102040003CD1D4F89C00B0F5406F25D00EDCA0B197
:10205000B0F5806F12D005E058440258004802588D
:10206000FFFCFF0FB0F5006F19D10EE0B0F5805FF7
:1020700013D0B0F5A05F12D110E012E0002104F1FE
:10208000080001F039FB05460BE0022104F12800AD
:1020900001F0E4FB054604E003E002E001E0012575
:1020A00000BF00BF4DB9FE48006820F4E050D4F8EE
:1020B0009C100843FA49086000E0A8468023D4E950
:1020C00000101940002059404040014335D1D4F858
:1020D000A000B0F5C04F1ED007DC68B1B0F5005FBE
:1020E0000BD0B0F5804F19D10EE0B0F5004F13D0F2
:1020F000B0F5204F12D110E012E0002104F10800E9
:1021000001F0FAFA05460BE0022104F1280001F083
:10211000A5FB054604E003E002E001E0012500BF65
:1021200000BF4DB9DE48006820F46040D4F8A0102C
:102130000843DB49086000E0A8460823D4E9001002
:102140001940002059404040014317D1D4F8840081
:10215000B0F5805F07D1022104F1280001F07EFB79
:1021600008B14FF00108CE48001F006820F440502D
:10217000D4F884100843CA49091F08601023D4E921
:1021800000101940002059404040014315D1D4F8B7
:102190009800B0F5807F07D1022104F1280001F0FA
:1021A0005DFB08B14FF00108BD48006820F44070A5
:1021B000D4F898100843BA4908604FF40022D4E9D3
:1021C000000110400021134658404940084327D1E0
:1021D000D4F8A40030B1B0F5803F0AD0B0F5003F8C
:1021E0000FD10DE0002104F1080001F085FA054649
:1021F00009E0022104F1280001F030FB054602E06D
:1022000001E0012500BF00BF4DB9A548006820F4DA
:102210004030D4F8A4100843A149086000E0A84663
:102220004FF48023D4E90001184000215840494070
:1022300008432DD1D4F88800B0F5801F06D0B0F542
:10224000001F0CD0B0F5401F11D10FE094482C387E
:10225000006840F4003092492C39086009E00121FF
:1022600004F1280001F0FAFA054602E001E0012538
:1022700000BF00BF5DB98A48001F006820F440100D
:10228000D4F8881008438649091F086000E0A84672
:102290004FF48032D4E90001104000211346584029
:1022A0004940084325D1206D18B1B0F5803F10D1C9
:1022B00008E07B482C38006840F4003078492C391D
:1022C000086008E0022104F1080001F015FA054653
:1022D00001E0012500BF00BF55B971480C38006806
:1022E00020F48030216D08436D490C39086000E00E
:1022F000A8464FF00052D4E90010114000201346C8
:1023000059404040014307D1022104F1280001F067
:10231000A5FA08B14FF001084FF40033D4E90001E9
:102320001840002158404940084329D1D4F8800082
:10233000A0B1B0F5807F06D0B0F5007F0CD0B0F52D
:10234000407F0CD109E056482C38006840F400303A
:1023500053492C39086004E003E002E001E0012564
:1023600000BF00BF5DB94E48001F006820F44070F8
:10237000D4F8801008434A49091F086000E0A846C5
:102380004FF48012D4E90010114000201346594048
:102390004040014309D142480838006820F000401D
:1023A000616F08433E49083908604FF08052D4E914
:1023B00000101140002013465940404001430AD10B
:1023C00037484838006820F48040D4F8B8100843F3
:1023D0003349483908604FF40012D4E90010114025
:1023E0000020134659404040014309D12C48083889
:1023F000006820F08070E16E0843294908390860C0
:102400004FF08042D4E9001011400020134659409B
:102410004040014311D100BF21484838006820F4F2
:1024200000401F494839086008460068D4F8BC10CD
:1024300008431B494839086000BF4FF00042D4E907
:10244000001011400020134659404040014309D17B
:1024500013480C38006820F04050616D0843104963
:102460000C3908604FF40002D4E90010114000203C
:1024700013465940404001430AD10948001F0068F3
:1024800020F44000D4F88C1008430549091F086067
:10249000012300216068184001224940504001E0BA
:1024A00058440258014306D104F1080001F024F910
:1024B000054605B1A8460222002160681040494047
:1024C0005040014307D1012104F1080001F014F943
:1024D000054605B1A846042300206168194004227E
:1024E00040405140084307D1022104F1080001F0A7
:1024F00003F9054605B1A846082300216068184085
:10250000082249405040014306D104F1280001F05F
:10251000A5F9054605B1A8461022002160681040C3
:1025200049405040014307D1012104F1280001F046
:1025300095F9054605B1A8462022002061681140A2
:1025400040405140084307D1022104F1280001F026
:1025500085F9054605B1A846B8F1000F02D1002063
:10256000BDE8F0810120FBE72DE9F04104460D466E
:1025700014B90120BDE8F081BD48006800F00F00EB
:10258000A8420ED2BA48006820F00F002843B8498C
:1025900008600846006800F00F00A84201D0012042
:1025A000E8E7207800F0040004280ED1B149206942
:1025B000096801F07001884207D9AE48006820F030
:1025C000700021690843AB490860207800F00800DA
:1025D000082811D1A749091D6069096801F0700137
:1025E000884209D9A348001D006820F07000616985
:1025F0000843A049091D0860207800F01000102849
:1026000011D19C49091DA069096801F4E061884263
:1026100009D99848001D006820F4E060A1690843CA
:102620009449091D0860207800F02000202811D16D
:1026300090490831E069096801F07001884209D9C0
:102640008C480830006820F07000E169084389492F
:1026500008310860207800F0020002280ED1854978
:10266000E068096801F00F01884207D981480068D5
:1026700020F00F00E16808437E490860207800F0F0
:102680000100002850D07B48006820F47060A168E9
:102690000843784908606068022807D175481838EF
:1026A0000068C0F34040F8B9012063E76068032880
:1026B00007D1704818380068C0F34060A0B9012005
:1026C00058E76068012807D16A4818380068C0F3E5
:1026D000002048B901204DE7664818380068C0F36B
:1026E000800008B9012045E762480838006820F0FA
:1026F0000700616808435F4908390860FEF742F83F
:10270000064608E0FEF73EF8801B41F28831884219
:1027100001D903202EE757480838006800F0380038
:102720006168B0EBC10FEDD1207800F00200022803
:102730000ED15049E068096801F00F01884207D2C4
:102740004C48006820F00F00E168084349490860E0
:102750004748006800F00F00A8420ED944480068BE
:1027600020F00F002843424908600846006800F046
:102770000F00A84201D00120FCE6207800F0040000
:1027800004280ED13B492069096801F07001884294
:1027900007D23848006820F07000216908433549A5
:1027A0000860207800F00800082811D13149091D7F
:1027B0006069096801F07001884209D22D48001D46
:1027C000006820F07000616908432A49091D08600B
:1027D000207800F01000102811D12649091DA069A9
:1027E000096801F4E061884209D22248001D0068AE
:1027F00020F4E060A16908431E49091D08602078A3
:1028000000F02000202811D11A490831E069096838
:1028100001F07001884209D216480830006820F0A3
:102820007000E169084313490831086000F052F86C
:1028300010490968C1F303210F4A515C01F01F01DF
:1028400020FA01F70B48006800F00F001146085C01
:1028500000F01F0027FA00F00849086008480760E8
:1028600008480068FDF7D0FF8046404682E6000039
:102870000020005218440258126500083401002458
:10288000300100242801002410B500F023F80D4980
:102890000968C1F303210C4A515C01F01F0120FAC1
:1028A00001F40848006800F00F001146085C00F0D1
:1028B0001F0024FA00F00549086005480460084636
:1028C000006810BD18440258126500083401002445
:1028D00030010024F0B5824E366806F0380636B175
:1028E000082E15D0102E15D0182E7DD114E07C4E58
:1028F000103E3668C6F3401646B1794E103E366833
:10290000C6F3C107774E26FA07F000E07548E5E008
:102910007548E3E07548E1E0714E1836366806F018
:1029200003046F4E18363668C6F305116C4E1C361C
:10293000366806F001056A4E24363668C6F3CC06C2
:1029400016FB05F601EE106AB8EE410A002971D0B7
:1029500024B1012C50D0022C6DD16DE0604E103EA0
:102960003668C6F340163EB35D4E103E3668C6F379
:10297000C1075C4E26FA07F301EE103AF8EE411A51
:1029800001EE101AB8EE411A81EE812A9FED581A15
:10299000C0EE011A524E20363668C6F3080601EE24
:1029A000106AB8EE411A31EE811AF7EE001A31EED4
:1029B000211A62EE010A1EE001EE101AB8EE411A69
:1029C000DFED4C1A81EE812A9FED491AC0EE011A03
:1029D000434E20363668C6F3080601EE106AB8EE9C
:1029E000411A31EE811A00E076E0F7EE001A31EE7E
:1029F000211A62EE010A5BE001EE101AB8EE411AEC
:102A00009FED3D2AC2EE011A9FED391A80EE012A90
:102A1000334E20363668C6F3080601EE106AB8EE6B
:102A2000411A32EE011AB7EE002A31EE021A61EEB7
:102A3000810A3DE04EE01DE001EE101AB8EE411AA9
:102A4000DFED2E1A81EE812A9FED291AC0EE011AC0
:102A5000234E20363668C6F3080601EE106AB8EE3B
:102A6000411A31EE811AF7EE001A31EE211A62EEA8
:102A7000010A1DE001EE101AB8EE411A9FED1E2A60
:102A8000C2EE011A9FED1A1A80EE012A144E20366A
:102A90003668C6F3080601EE106AB8EE411A32EE47
:102AA000011AB7EE002A31EE021A61EE810A00BF68
:102AB00000BF0B4E20363668C6F34626721C01EE68
:102AC000102AB8EE411AC0EE811ABCEEE11A11EEDE
:102AD000100A00E0002001E0034800BF00BFF0BD85
:102AE000104402580090D00300093D0000127A0003
:102AF000000000460024744C0024744A0024F44A68
:102B00002DE9F047044614B90120BDE8F08720788C
:102B100000F00100002870D0FA48006800F0380882
:102B2000F8481830D0F80090B8F1100F06D0B8F17E
:102B3000180F0FD109F0030002280BD1F14810380B
:102B40000068C0F3404000286AD06068002867D160
:102B50000120DAE700BF6068B0F5803F08D1E9489E
:102B60001038006840F48030E649103908602EE0E3
:102B7000606868B9E3481038006820F48030E149A3
:102B8000103908600846006820F4802008601EE0C4
:102B90006068B0F5A02F0DD1DA481038006840F415
:102BA0008020D849103908600846006840F4803019
:102BB00008600CE0D3481038006820F48030D14918
:102BC000103908600846006820F48020086000BFC3
:102BD000606898B1FDF7D6FD054606E0FDF7D2FD29
:102BE000401B642801D903208FE7C64810380068CD
:102BF000C0F340400028F1D012E012E0FDF7C2FD22
:102C0000054606E0FDF7BEFD401B642801D9032000
:102C10007BE7BC4810380068C0F340400028F1D181
:102C200000BF207800F00200022874D1B548006887
:102C300000F03808B3481830D0F80090B8F1000F11
:102C400005D0B8F1180F56D109F00300D0BBAD483C
:102C500010380068C0F3800018B1E06808B901209E
:102C600053E7A8481038006820F01900E1680843CD
:102C7000A44910390860FDF785FD054606E0FDF71B
:102C800081FD401B022801D903203EE79D481038F2
:102C90000068C0F380000028F1D000BFFDF76CFD94
:102CA00041F2030188421AD8206940280BD1954887
:102CB0000C38006820F47C3040F4003091490C3925
:102CC000086017E017E08F480C38006820F47C306B
:102CD000216940EA01308B490C3908600AE08948D3
:102CE0000C38006820F0FE40217C40EA01608549F4
:102CF0000C39086066E0E06888B3824810380068E4
:102D000020F01900E16808437E4910390860FDF79A
:102D100039FD054607E056E0FDF734FD401B02286B
:102D200001D90320F1E6774810380068C0F380002D
:102D30000028F1D000BFFDF71FFD41F203018842DA
:102D40001AD8206940280BD16E480C38006820F44E
:102D50007C3040F400306B490C39086017E017E014
:102D600068480C38006820F47C30216940EA013062
:102D700064490C3908600AE062480C38006820F0A9
:102D8000FE40217C40EA01605E490C39086019E090
:102D90005C481038006820F001005A49103908607A
:102DA000FDF7F0FC054606E0FDF7ECFC401B0228B1
:102DB00001D90320A9E6534810380068C0F3800009
:102DC0000028F1D100BF207800F0100010287CD13D
:102DD0004C48006800F038084A481830D0F8009095
:102DE000B8F1080F06D0B8F1180F3DD109F0030073
:102DF000012839D1434810380068C0F3002020B1C1
:102E0000E069802801D001207FE600BFFDF7B4FC17
:102E100041F2030188421AD8206A20280AD1394891
:102E20000C38006820F0F84040F0804035490C39FB
:102E3000086018E033480C38006820F0F84094F837
:102E4000201040EA81602F490C3908600BE02D48C2
:102E5000001F006820F07C5094F8201040EA0160C8
:102E60002849091F086066E0E06978B325481038F2
:102E7000006840F08000234910390860FDF782FCAB
:102E8000054606E0FDF77EFC401B022801D9032021
:102E90003BE61C4810380068C0F300200028F1D041
:102EA00000BFFDF769FC41F2030188421CD8206A8B
:102EB00020280CD113480C38006820F0F84040F06E
:102EC000804010490C3908601AE035E01CE00D48DC
:102ED0000C38006820F0F84094F8201040EA816037
:102EE00008490C3908600BE00648001F006820F014
:102EF0007C5094F8201040EA01600249091F0860E4
:102F000019E0000010440258FA48006820F08000E0
:102F1000F8490860FDF736FC054606E0FDF732FC8F
:102F2000401B022801D90320EFE5F2480068C0F3F6
:102F300000200028F2D100BF207800F00800082807
:102F400036D16069D0B1EB487430006840F00100C0
:102F5000E84974310860FDF715FC054606E0FDF709
:102F600011FC401B022801D90320CEE5E148743052
:102F70000068C0F340000028F1D019E0DD4874304B
:102F8000006820F00100DB4974310860FDF7FAFBAE
:102F9000054606E0FDF7F6FB401B022801D9032099
:102FA000B3E5D44874300068C0F340000028F1D184
:102FB000207800F02000202830D1A069B8B1CD4899
:102FC000006840F48050CB490860FDF7DBFB054604
:102FD00006E0FDF7D7FB401B022801D9032094E54A
:102FE000C4480068C0F340300028F2D016E0C14861
:102FF000006820F48050BF490860FDF7C3FB054618
:1030000006E0FDF7BFFB401B022801D903207CE549
:10301000B8480068C0F340300028F2D1207800F0B2
:10302000040004287DD1B448006840F48070B2499F
:103030000860FDF7A7FB054606E0FDF7A3FB401B74
:10304000642801D9032060E5AB48006800F4807073
:103050000028F2D000BFA068012808D1A548703030
:10306000006840F00100A349703108602DE0A068BD
:1030700068B9A0487030006820F001009D497031A7
:1030800008600846006820F0040008601DE0A068A1
:1030900005280DD197487030006840F0040095492C
:1030A000703108600846006840F0010008600CE0DC
:1030B00090487030006820F001008E49703108603F
:1030C0000846006820F00400086000BFA068A0B1B6
:1030D000FDF758FB054608E0FDF754FB401B41F2A5
:1030E0008831884201D903200FE58248703000689A
:1030F000C0F340000028EFD013E0FDF743FB054686
:1031000008E0FDF73FFB401B41F28831884201D9BE
:103110000320FAE4774870300068C0F340000028CC
:10312000EFD1606A00287DD072481030006800F04E
:103130003800182877D0606A022875D16D48006879
:1031400020F080706B490860FDF71CFB054606E027
:10315000FDF718FB401B022801D90320D5E4654880
:103160000068C0F340600028F2D100BFD4E90A1023
:1031700041EA00105F492831096840F2F332914377
:1031800008435C4928310860208E401EC0F30800C7
:10319000616B491E4FF47E4202EA41210843218FB0
:1031A000491ED20102EA014108433C21095D491E42
:1031B000120202EA016108434E493031086000BF43
:1031C000081F006820F00100091F086049483430DA
:1031D00000684FF6F8718843A16C40EAC100454988
:1031E0003431086043482C30006820F00C00216C1A
:1031F000084340492C3108600846006820F002006E
:10320000616C08433B492C3108600846006840F473
:10321000803008600846006840F4003008600846C6
:10322000006802E093E038E01FE040F4802008608E
:103230000846006840F0010008602E48006840F031
:1032400080702C490860FDF79DFA054606E0FDF701
:1032500099FA401B022801D9032056E4254800684A
:10326000C0F340600028F2D071E02248006820F0EE
:10327000807020490860FDF785FA054606E0FDF7F5
:1032800081FA401B022801D903203EE41948006856
:10329000C0F340600028F2D159E016482830076892
:1032A000144830300668606A012821D007F0030115
:1032B000A06A81421CD1C7F30511E06A884217D188
:1032C000C6F30801206B401E814211D1606B401E85
:1032D000C6F3462188420BD1A06B401EC6F30641BF
:1032E000884205D1E06B401EC6F30661884205D0D6
:1032F00001200AE4004402580048025815480068BA
:10330000C0F3CC07A06CB84221D01248083800683E
:1033100020F001000F4908390860FDF733FA05462F
:1033200000BFFDF72FFA401BFBD00A4800684FF69C
:10333000F8718843A16C40EAC1000649086005485D
:103340000838006840F00100024908390860002090
:103350004AE400003444025870B504462546681E0D
:10336000B0F1807F01D301200FE0681E4FF0E02113
:1033700048610F214FF0FF3003F0A4F800204FF018
:10338000E021886107200861002070BD00BFFEE7D2
:1033900030B50B46002100BF16E00A24B4EB107FC5
:1033A00005D9302404EB107403F8114005E04124E2
:1033B00004EB10740A3C03F81140000100254C0096
:1033C000641C1D554C1CE1B29142E6DB30BD00008F
:1033D00008B500BF0D48006840F080000B49086048
:1033E0000846006800F08000009000BF00BF00BFEA
:1033F0000846006840F0010008600846006800F0D8
:103400000100009000BF00BF08BD0000E04402586A
:1034100010B500220E490F4801F022FA08B1FDF75D
:103420007CF80D490B4801F057FD08B1FDF775F820
:103430000A49084800F03CFE08B1FDF76EF805485F
:1034400001F04CFE08B1FDF768F8FEF7CFF910BDAA
:1034500000000024A80100244801002410010024D9
:1034600000BFFEE700BFFEE710B50248FDF750FCC5
:1034700010BD00008416002410B50248FDF748FC7A
:1034800010BD00008416002410B50248FDF740FC72
:1034900010BD0000841600242DE9F04704460D46B7
:1034A00026683746D6F8408007F5306000EB4510B7
:1034B000D0F80890104880450BD909F40040B0F5C9
:1034C000004F06D14FF4004107F5306000EB451086
:1034D00081602046FEF710F90748804508D9A07999
:1034E000012805D104F29C420121206802F0FCFA77
:1034F0000020BDE8F08700000A30544F2DE9F04766
:1035000005460C46D5F800904E46D9F840A006F581
:10351000306000EB4410D0F80880A879012855D11C
:1035200008F0080008280FD1434882450BD908F459
:103530000040B0F5004F7BD14FF4004106F53060FC
:1035400000EB4410816073E008F02000202806D1D1
:10355000202106F5306000EB4410816068E008F03F
:103560002800002864D1344882450CD908F4004072
:10357000B0F5004F07D14FF4004106F5306000EB85
:103580004410816054E004EBC40105F5157000EBB4
:10359000810706F5306000EB4410396A0069C0F31A
:1035A0001200081A786164B9386930B905F29C4292
:1035B0000121286802F098FA03E07969F868084464
:1035C000F860E1B22846FDF71BFA31E01B4882455E
:1035D0001BD108F40040B0F5004F07D14FF4004173
:1035E00006F5306000EB4410816021E008F0200017
:1035F000202805D1202106F5306000EB44108160C1
:10360000E1B22846FDF7FCF912E06CB904EBC40105
:1036100005F5157000EB8100006928B905F29C42A0
:103620000021286802F060FAE1B22846FDF7E8F9C7
:103630000020BDE8F08700000A30544F0A31544F93
:103640002DE9F84F07460E46D7F80090C84606EB1E
:10365000C60107F1140000EB8104D4E9041088428C
:1036600002D90120BDE8F88FD4E90401451AA06809
:10367000A84200D2A568E81C4FEA900A17E0D4E9F6
:103680000401451AA068A84200D2A568E81C4FEAC8
:10369000900AB879ABB2F2B200904846E16802F005
:1036A000E5FEE0682844E06060692844606108F550
:1036B000106000EB4610806980B2504506D3D4E913
:1036C0000410884202D220690028D8D1D4E904012C
:1036D00088420ED806F00F01012000FA01FB40F6E7
:1036E000340050F8080020EA0B0040F6340141F89D
:1036F00008000020B6E770472DE9F04104460E4669
:1037000000275548006800F00300032802D101207B
:10371000BDE8F08150482838006820F080604E49AC
:1037200028390860FDF72EF8054606E0FDF72AF86F
:10373000401B022801D90320EAE7474828380068DF
:10374000C0F3C0600028F1D100BF4348006820F4F6
:103750007C30216840EA01303F490860A088401E63
:10376000C0F30800A168491E4FF47E4202EA4121DD
:103770000843A189491ED20102EA01410843217C84
:10378000491E120202EA0161084333491031086000
:1037900000BF3148001D006820F0C0006169084387
:1037A0002D49091D08600846006820F02000A16925
:1037B00008432949091D08600846006820F01000E8
:1037C00008602548143000684FF6F8718843E169B5
:1037D00040EAC1002049143108601F48001D0068FC
:1037E00040F010001C49091D08602EB90846006809
:1037F00040F40020086012E0012E08D11648001D98
:10380000006840F480101449091D086007E0124860
:10381000001D006840F400100F49091D08600E48A3
:103820002838006840F080600B4928390860FCF7B0
:10383000A9FF054606E0FCF7A5FF401B022801D9B9
:10384000032065E7044828380068C0F3C0600028FA
:10385000F1D038465CE70000284402582DE9F041D9
:1038600004460E4600275548006800F00300032870
:1038700002D10120BDE8F08150482838006820F0CE
:1038800080504E4928390860FCF77CFF054606E069
:10389000FCF778FF401B022801D90320EAE74748DC
:1038A00028380068C0F340700028F1D100BF4348B9
:1038B000006820F07C70218840EA01503F49086090
:1038C000A088401EC0F30800A168491E4FF47E4244
:1038D00002EA41210843A189491ED20102EA0141BD
:1038E0000843217C491E120202EA01610843334960
:1038F0001831086000BF3148001D006820F44060A6
:10390000616908432D49091D08600846006820F4D4
:103910000070A16908432949091D0860084600682C
:1039200020F48070086025481C3000684FF6F8715C
:103930008843E16940EAC10020491C3108601F4802
:10394000001D006840F480701C49091D08602EB9F4
:103950000846006840F48000086012E0012E08D19B
:103960001648001D006840F400001449091D086055
:1039700007E01248001D006840F080700F49091DE3
:1039800008600E482838006840F080500B492839FC
:103990000860FCF7F7FE054606E0FCF7F3FE401B67
:1039A000022801D9032065E7044828380068C0F3DD
:1039B00040700028F1D038465CE7000028440258E7
:1039C000704730B501460A461378521C147843EA12
:1039D000042030BD10B5FCF7DBFE10BD00B59DB076
:1039E0004C210AA8FCF7E8FC202102A8FCF7E4FC23
:1039F0000220FDF7CBFE00BF002001902B4800689D
:103A000020F00100294908600846006800F0010024
:103A100001902748006840F4404025490860084666
:103A2000006800F44040019000BF00BF00BF204884
:103A3000006800F40050B0F5005FF8D121200A9032
:103A40004FF480300B90012010900220139002213F
:103A500014910121159164211691022117911421CD
:103A60001891022119910C211A9100211B911C918E
:103A70000AA8FFF745F808B1FCF74FFD3F20029078
:103A80000320039000200490082005904020069019
:103A900007900001089040200990022102A8FEF73B
:103AA00063FD08B1FCF739FD1DB000BD2C040058C2
:103AB000184802583448006840F4700032490860E1
:103AC0003248006800F00F00072806D22F4800682F
:103AD00020F00F00C01D2D4908602D48006840F0FF
:103AE00001002B490860002029491031086028484E
:103AF000006828490840264908602448006800F00A
:103B00000F00072806D92148006820F00F00C01DCB
:103B10001E49086000201E4918310860091D086010
:103B2000091D08601C481A49283108601B48091DF6
:103B300008601B48091D08600020091D086018481E
:103B4000091D08600020091D08601548091D08604E
:103B50000020091D08600E48006820F480200C49F0
:103B6000086000200A49603108600E4800686FF361
:103B70000F00B0F1005F02D201200B49086043F250
:103B8000D2000A490860704788ED00E0002000522A
:103B9000004402587FEDF6EA000202020000FF0135
:103BA000800201010010005C0881005100400052B9
:103BB0002DE9F04104460D46D4F8C87204F5307082
:103BC000D4F8D41250F8210010B90320BDE8F081D8
:103BD00004F53070D4F8D41250F8216005F00F00CD
:103BE00000EB800104F1140000EB8100406838B361
:103BF00005F00F0000EB800104F1140000EB8100E0
:103C0000416805F00F0000EBC00207F1140000EB63
:103C100082008068B1FBF0F200FB121080B9002135
:103C200005F00F0000EB800204F1140000EB8200AD
:103C3000416000231A462946204601F01AF917E090
:103C40000020C6F8140204F53170D4F8D41250F8EC
:103C50002100006960B1D6F8080204F53171D4F88A
:103C6000D42251F822102A460B6906F504719847B0
:103C70000020ABE770B504460E4604F53070D4F86A
:103C8000D41250F82150D4F8D41250F8210008B9B9
:103C9000032070BD3146204600F040FFC5F80C02FD
:103CA000D5F8040204F53171D4F8D43251F8231058
:103CB000CA6805F5037190470020EAE770B504462D
:103CC0000D4630480178204600F0FAFD00212D48CD
:103CD000007800F00F0000EB800204F1140000EB0C
:103CE0008200018228480178204600F0E9FD002189
:103CF0002548007800F00F0000EB800204F5AA7060
:103D000000EB8200018221480178204600F0D8FDB6
:103D100000211E48007800F00F0000EB800204F143
:103D2000140000EB820001821848007800F00F00B8
:103D300000EB800204F1140000EB8200418204F5E4
:103D40003070D4F8D41250F82100C8B104F53171A4
:103D5000D4F8D42251F822104868804704F5307115
:103D6000D4F8D42251F8220001F0FEFB002104F522
:103D70003070D4F8D42240F822100020C4F8BC02DD
:103D8000002070BDA4010024A5010024A601002488
:103D900070B5044604F53070D4F8D41250F82150B0
:103DA0000DB9032070BD04F53170D4F8D41250F869
:103DB000210098B195F80002FF280FD095F8012254
:103DC00095F8000204F53171D4F8D46251F8261048
:103DD0008B6829469847FF2085F800020020E1E71C
:103DE00001460A2008800148704700003C01002479
:103DF0002DE9F041044682210D4800F07DFC054686
:103E000001210B4800F078FC06468121084800F0AB
:103E100073FC07460DB11020A8710EB14020B08090
:103E20000FB14020B880202020800148BDE8F081FB
:103E3000840100242DE9F041044682210E4800F05F
:103E40005BFC054601210C4800F056FC064681212A
:103E5000094800F051FC07460DB11020A87116B1B9
:103E60004FF40070B08017B14FF40070B88020207C
:103E700020800148BDE8F081840100242DE9F04153
:103E8000044682210D4800F037FC054601210B480D
:103E900000F032FC06468121084800F02DFC074660
:103EA0000DB11020A8710EB14020B0800FB140209C
:103EB000B880202020800148BDE8F08184010024E2
:103EC00070B504460E464FF4077001F04FFB0546EF
:103ED00045B9002104F53070D4F8D42240F82210FE
:103EE000022070BD4FF407712846FCF765FA04F50F
:103EF0003070D4F8D41240F82150D4F8D41250F8CD
:103F00002100C4F8BC02207C98BB4FF4007302224D
:103F100050480178204600F0A5FE01214D48007868
:103F200000F00F0000EB800204F1140000EB8200AF
:103F300001824B02022248480178204600F092FE9E
:103F400001214548007800F00F0000EB800204F5E5
:103F5000AA7000EB8200018210214048007800F036
:103F60000F0000EB800204F1140000EB820041829C
:103F700032E0FFE74023022236480178204600F075
:103F800071FE01213348007800F00F0000EB800241
:103F900004F1140000EB82000182402302222E482B
:103FA0000178204600F05EFE01212B48007800F0E9
:103FB0000F0000EB800204F5AA7000EB8200018282
:103FC00010212648007800F00F0000EB800204F179
:103FD000140000EB82004182082303221F4801786D
:103FE000204600F03FFE01211C48007800F00F0041
:103FF00000EB800204F1140000EB8200018200203B
:10400000C5F8040204F53171D4F8D42251F8221015
:10401000086880470020C5F81402C5F81802D5F8D2
:10402000040208B902205CE7207C48B94FF4007311
:10403000094801782046D5F8042200F02BFE07E05D
:104040004023054801782046D5F8042200F022FEDE
:10405000002046E7A4010024A5010024A6010024B5
:1040600070B5044604F53070D4F8D41250F82150DD
:10407000D4F8D41250F8210008B9032070BD207C78
:1040800048B94FF40073094801782046D5F8042256
:1040900000F000FE07E04023044801782046D5F8F0
:1040A000042200F0F7FD0020E8E70000A50100244D
:1040B000024609B90320704702F53170D2F8D432B4
:1040C00040F823100020F6E710B5024602F53070E4
:1040D000D2F8D44250F824300BB9032010BDC3F8F5
:1040E00004120020FAE730B503460C4603F53070A1
:1040F000D3F8D45250F8251009B9032030BDC1F8C7
:104100000842C1F810220020F8E72DE9FC410546DD
:104110000C4605F53070D5F8D41250F82160002017
:1041200001900090804616B90320BDE8FC812078FC
:1041300000F0600000283DD020287CD1E08868B3E2
:10414000207800F08000B8B1E288607805F5317120
:10415000D5F8D4C251F82C108B6831469847E088C6
:10416000072801D9072000E0E08807463A46314693
:10417000284600F0E2F81CE0607886F80002E0884B
:10418000402801D2E08800E0402086F8010296F83D
:1041900001223146284600F0AFF80AE0607805F5C4
:1041A0003171D5F8D42251F8221000228B682146B3
:1041B000984747E0607830B1012832D00A2813D000
:1041C0000B282FD121E095F89C02032805D102226B
:1041D0006946284600F0B1F805E02146284600F07F
:1041E0007FF84FF0030824E095F89C02032805D1DE
:1041F000012201A9284600F0A0F805E02146284642
:1042000000F06EF84FF0030813E095F89C020328C5
:1042100005D02146284600F063F84FF0030808E077
:1042200009E006E02146284600F05AF84FF003085E
:1042300000BF00BF06E02146284600F051F84FF0CD
:10424000030800BF00BF40466FE770B504460D4647
:104250000026D4F8B802294642682046904700B1AB
:104260000326304670BD70B504460D4694F89C0296
:10427000012804D0022803D003280CD101E000BF9C
:1042800000BF6888012805D10020C4F8A402204698
:1042900000F064F804E02946204600F021F800BF51
:1042A00000BF70BD024600207047024600207047E4
:1042B00070B506460C4615462B4622460021304670
:1042C00000F0E8FC002070BD70B506460C461546AF
:1042D0002B4622460021304600F0CBFD002070BD69
:1042E00070B504460D468021204600F092FD002165
:1042F000204600F08EFD70BD70B504460E46154692
:104300000320C4F894024FF4AC700551001D055110
:104310002B4632460021204600F0BCFC002070BD38
:1043200010B504460520C4F8940200231A46194625
:10433000204600F0AFFC002010BD70B504460E46CC
:1043400015460220C4F89402A561E5612B46324669
:104350000021204600F08DFD002070BD10B5044600
:104360000420C4F8940200231A461946204600F09F
:1043700080FD002010BD000070B505460C462DB92B
:104380002246064906A000F021FA04E0224603492D
:1043900003A000F01BFA014870BD00008404002453
:1043A00057494E55534220436F6E666967000000BF
:1043B00002461220088001487047000024000024B3
:1043C00070B505460C462DB92246064906A000F0F8
:1043D000FDF904E02246034903A000F0F7F9014883
:1043E00070BD00008404002457494E5553422049B3
:1043F0006E74657266616365000000000246042009
:104400000880014870470000F000002470B50546A0
:104410000C462246024903A000F0D8F9004870BDBE
:104420008404002453544D6963726F656C65637432
:10443000726F6E696373000070B505460C462DB946
:104440002246064906A000F0C1F904E022460349CD
:1044500003A000F0BBF9014870BD000084040024F3
:1044600047554F5855414E204653000070B50546FC
:104470000C461A202080FCF753F8014870BD00005C
:10448000F400002470B504460D46E888012804D0E5
:1044900029462046FFF724FF1EE094F89C020128DD
:1044A00004D0022803D0032810D109E000BF002067
:1044B000A060012204F108012046FFF73EFF0AE058
:1044C0000122211D2046FFF738FF04E0294620463F
:1044D000FFF706FF00BF00BF70BDF8B504460E46EB
:1044E000002000900027002570880012082872D252
:1044F000DFE800F0D8040C20D8D8B6C6207CD4F869
:10450000B4120A68694690470746D2E0207C40B959
:10451000D4F8B802816A6846884707460220787056
:1045200007E0D4F8B802C16A684688470746022007
:104530007870BEE0B07803284ED005DC58B1012871
:1045400023D002286ED133E0042858D005286BD040
:10455000EE287CD112E0D4F8B402406838B1207C57
:10456000D4F8B4124A6869469047074605E03146D8
:104570002046FFF7B5FE681CC5B26FE0D4F8B8025C
:10458000816B68468847074668E0D4F8B4028068C3
:1045900038B1207CD4F8B4128A686946904707463F
:1045A00005E031462046FFF79BFE681CC5B255E08A
:1045B000D4F8B402C06838B1207CD4F8B412CA6808
:1045C00069469047074605E031462046FFF788FEDA
:1045D000681CC5B242E065E0D4F8B402006938B1A5
:1045E000207CD4F8B4120A6969469047074605E072
:1045F00031462046FFF774FE681CC5B22EE0D4F8A1
:10460000B402406938B1207CD4F8B4124A696946D2
:104610009047074605E031462046FFF761FE681CDB
:10462000C5B21BE013E0FFE7D4F8B402806938B1EB
:10463000207CD4F8B4128A6969469047074605E0A1
:1046400031462046FFF74CFE681CC5B206E03146F5
:104650002046FFF745FE681CC5B200BF00BF28E03A
:10466000207C30B9D4F8B802416B684688470746C9
:1046700005E031462046FFF733FE681CC5B218E05E
:10468000207C40B9D4F8B802016B684688470746D9
:104690000720787005E031462046FFF721FE681CB0
:1046A000C5B206E031462046FFF71AFE681CC5B2C7
:1046B00000BF00BF05B1F8BDF088C0B1BDF8000073
:1046C00080B1F088BDF80010884202DDBDF800001E
:1046D00000E0F0880090BDF8002039462046FFF742
:1046E0002CFE07E031462046FFF7FAFD02E02046A7
:1046F000FFF734FE00BFDEE72DE9F84105460F461F
:104700002C462E464FF0000870883178884218DD1C
:10471000307800900FE06946204600F020F804460B
:104720006078052807D1A04698F80200B84200D169
:1047300006E04FF000087088BDF800108842EADCFF
:1047400000BF4046BDE8F881014600200A4602E06D
:10475000431CD8B2521C1378002BF9D1704710B506
:10476000024610460B88047823440B80037898187F
:1047700010BD70B504460D4694F89C02012804D083
:10478000022803D003281AD101E000BF00BFE88847
:10479000022804D029462046FFF7A2FD14E001209C
:1047A000E060D4F8A40218B1E06840F00200E060D4
:1047B000022204F10C012046FFF7BFFD04E0294668
:1047C0002046FFF78DFD00BF00BF70BD2DE9F04111
:1047D00007460D46904600240FB9BDE8F0813E46DD
:1047E0003046FFF7B1FF022101EB4000B0F5007F3A
:1047F00001D9080204E03046FFF7A6FF4000801C04
:10480000A8F8000098F800002855601CC4B20320E6
:104810002855601CC4B208E030782855761C601C0E
:10482000C4B200202855601CC4B230780028F3D1EF
:1048300000BFD2E70146002031B1012906D002298C
:1048400006D0032908D105E0002007E0032005E099
:10485000012003E0032001E0032000BF00BF7047F8
:104860002DE9F04104460D46164614B90320BDE873
:10487000F0810020C4F8B802C4F8C402C4F8D00221
:104880000DB1C4F8B452012084F89C022670204671
:1048900000F04EF907463846E9E72DE9F0410446B5
:1048A0000D46002600272946D4F8C802FCF715F962
:1048B00006463046FFF7BEFF07463846BDE8F081A2
:1048C0002DE9F04104460D46002600272946D4F87C
:1048D000C802FCF7CDF806463046FFF7ABFF0746A7
:1048E0003846BDE8F0812DE9F04704460F46914671
:1048F000002F56D104F11405D4F89402022846D1B1
:10490000D5E9020188420FD9D5E90201401AA86011
:1049100049462046AA68FFF7D7FC00231A461946E5
:10492000204600F0B7F932E0D5E90210884217D1ED
:10493000E9686868884213D36868D4F89812884296
:104940000ED2002211462046FFF7BEFC0020C4F81C
:10495000980200231A461946204600F09BF916E0FB
:1049600094F89C0203280BD1D4F8B802C06838B17F
:104970000020C4F8D402D4F8B802C16820468847A1
:104980008021204600F045FA2046FFF7C9FC94F844
:10499000A00250B3204600F0C3FA002084F8A00221
:1049A00023E047F080012046FFF77CFC0646FF2EFF
:1049B0001BD0D6B994F89C02032816D104F52E70AA
:1049C00050F82600406980B1C4F8D46204F52E7016
:1049D00050F8260039464269204690478046B8F193
:1049E000000F02D04046BDE8F0870020FBE72DE92C
:1049F000F04705460F4690464FF00009002F51D171
:104A000005F5AA76D5F8940203286FD1D6E90201FC
:104A1000884210D9D6E90201401AB060D6E90201F5
:104A2000884201D2B06800E0F0680246414628465C
:104A3000FFF73EFC5AE095F8AA0200F01F0020B1F3
:104A4000012804D0022812D109E0002411E040F22C
:104A5000AE20415D2846FFF728FC044609E040F2FD
:104A6000AE20415D2846FFF71DFC044601E000240E
:104A700000BF00BF94B995F89C0203280ED105F53C
:104A80002E7050F82400006940B1C5F8D44205F5F5
:104A90002E7050F824000169284688472846FFF701
:104AA0005DFC23E007F07F012846FFF7FBFB04468F
:104AB000FF2C1BD0D4B995F89C02032810D105F522
:104AC0002E7050F82400806950B1C5F8D44205F525
:104AD0002E7050F824003946826928469047814656
:104AE000B9F1000F02D04846BDE8F0870020FBE78F
:104AF00001460020704770B504460025012084F867
:104B00009C02D4F8B80238B12179D4F8B8024268CE
:104B10002046904700B10325284670BD70B5044675
:104B20000D462946D4F8C802FCF715F870BD000000
:104B300010B50446207800282AD11648C0F8E04471
:104B4000C4F8C802144813490860092008710221FA
:104B50001048C171012181710221417200218172CD
:104B6000C172017341738173C173FCF76AFC08B1B0
:104B7000FBF7D3FC80210748FBF7FFFE4022002112
:104B80000448FBF7FFFE802201210248FBF7FAFEF2
:104B9000002010BD841600240000084010B5024615
:104BA000D2F8C83201F08000802809D101F07F00DE
:104BB00000EBC00403F1140000EB8400807810BD0A
:104BC00001F07F0000EBC00403F5157000EB8400DA
:104BD0008078F4E770B504460D4604F52E70D4F8DD
:104BE000D41250F8210008B9032070BD94F89C023B
:104BF000032811D104F52E70D4F8D41250F82100F6
:104C0000006A48B104F52E70D4F8D41250F821008F
:104C10002946026A204690470020E6E770B5044620
:104C20000D4604F52E70D4F8D41250F8210008B9BE
:104C3000032070BD94F89C02032811D104F52E7056
:104C4000D4F8D41250F82100406A48B104F52E700F
:104C5000D4F8D41250F821002946426A20469047E1
:104C60000020E6E72DE9F04704460F4615461E46AC
:104C70004FF00008C1462B4632463946D4F8C802E8
:104C8000FBF774FF80464046FFF7D4FD8146484657
:104C9000BDE8F0872DE9F04704460D4616461F464D
:104CA0004FF00008C1463B4632462946D4F8C802B8
:104CB000FBF7A2FF80464046FFF7BCFD8146484611
:104CC000BDE8F08770B504460025012084F89C02F9
:104CD0000020C4F894026060C4F8A40284F8A00222
:104CE000D4F8B80258B1D4F8B802406838B1217984
:104CF000D4F8B80242682046904700B1032540230B
:104D0000002211462046FFF7ADFF01214FF4B2709B
:104D100001534021001F01514023002280212046E1
:104D2000FFF7A0FF0121A18440212162284670BD28
:104D3000014691F89C02042803D191F89D0281F864
:104D40009C020020704710B5044694F89C0203288A
:104D50000BD1D4F8B80240B1D4F8B802C06920B180
:104D6000D4F8B802C16920468847002010BD024629
:104D70001174002070472DE9F04104460D460026CD
:104D800000272946D4F8C802FCF79CFC06463046AA
:104D9000FFF750FD07463846BDE8F08170B5044680
:104DA0000D46294604F2AA2000F07BF80120C4F841
:104DB00094024FF42C70005BC4F8980294F8AA0295
:104DC00000F01F0020B1012809D0022815D10DE004
:104DD00004F2AA21204600F087F9064616E004F204
:104DE000AA21204600F010FB06460FE004F2AA219B
:104DF000204600F0C9F9064608E094F8AA0200F03F
:104E00008001204600F005F8064600BF00BF30468E
:104E100070BD2DE9F04104460D46002600272946C5
:104E2000D4F8C802FBF70BFF06463046FFF702FD39
:104E300007463846BDE8F08170B5044600250026D7
:104E4000D4F8C802FCF761FC05462846FFF7F2FCDF
:104E50000646304670BD014691F89C02042803D0F6
:104E600091F89C0281F89D02042081F89C020020A8
:104E700070472DE9F04704460D4616461F464FF091
:104E80000008C1463B4632462946D4F8C802FBF723
:104E90001BFF80464046FFF7CDFC81464846BDE8F3
:104EA000F08770B505460E46344620782870641C9D
:104EB00020786870641C2046FEF783FD6880641CBF
:104EC000641C2046FEF77DFDA880641C641C2046FF
:104ED000FEF777FDE88070BD38B504460D4600202A
:104EE00000900DB9032038BDC4F8B85204F52E70F7
:104EF000D4F8D41250F82100C06A50B104F52E70D5
:104F0000D4F8D42250F82200C16A68468847C4F811
:104F1000D002D4F8D802401CC4F8D8020020E2E73E
:104F200001460020704770B504460D46A88810BBA6
:104F3000E88800BB688880281DD2A87800F07F062A
:104F400094F89C02032804D129462046FFF7C8F9AB
:104F500015E084F89E6231462046FFF70CFF20469C
:104F6000FFF7FCF91EB1022084F89C0207E0012043
:104F700084F89C0203E029462046FFF7B1F970BD92
:104F800070B504460D460026D4F8B80230B1D4F806
:104F9000B80229460268204690470646304670BD52
:104FA00070B504460E460025B0783D4908700846A5
:104FB0000078012805D931462046FFF791F90320F2
:104FC00070BD94F89C02022802D0032859D11FE03A
:104FD00033480078C0B132480078606030480178CA
:104FE0002046FFF7CDFF05463DB131462046FFF78D
:104FF00077F9022084F89C0209E02046FFF7AEF919
:10500000032084F89C0202E02046FFF7A7F943E062
:105010002348007870B9022084F89C022048007868
:1050200060601F4801782046FFF70FF92046FFF720
:1050300095F925E01A490978606888421DD02179E0
:105040002046FFF702F9164800786060144801789E
:105050002046FFF795FF05465DB131462046FFF734
:105060003FF921792046FFF7F0F8022084F89C02EE
:1050700006E02046FFF772F902E02046FFF76EF9DE
:105080000AE031462046FFF72BF905480178204613
:10509000FFF7DBF8032500BF00BF284690E70000BC
:1050A0003801002470B505460C466088012805D1FA
:1050B000C5F8A4022846FFF751F90EE060880228DF
:1050C00007D1A088001285F8A0022846FFF746F90C
:1050D00003E021462846FFF703F970BD10B50446EA
:1050E0002046FFF7A9FE10BD70B505460C46002608
:1050F000207800F0600050B1202802D040283BD139
:1051000000E000BF2146284600F0DCF939E0607875
:105110000A282AD2DFE800F01A24291F290A0529C3
:10512000150F21462846FFF7D8F923E021462846E7
:10513000FFF7F9FE1EE021462846FFF731FF06463D
:1051400018E021462846FFF79DF913E0214628463E
:10515000FFF70FFB0EE021462846FFF7A3FF09E00B
:1051600021462846FFF77FF804E021462846FFF74E
:10517000B7F800BF00BF04E021462846FFF7B0F8AB
:1051800000BF00BF304670BD2DE9F04705460F4611
:105190004FF000093C79387800F06000F8B1202821
:1051A00002D040287DD100E000BF21462846FFF70D
:1051B00079F80646FF2E11D086B9C5F8D46205F5F8
:1051C0002E7050F82600806840B105F52E7050F81A
:1051D00026003946826828469047814610E1787853
:1051E00000287AD001282FD003286ED195F89C0290
:1051F000022802D0032820D110E054B1802C08D01E
:1052000021462846FFF705FE80212846FFF701FECC
:1052100003E039462846FFF763F813E0788840B981
:105220003CB1802C05D0F88818B921462846FFF7F4
:10523000F0FD2846FFF792F804E039462846FFF7CC
:105240004FF800BF00BFD4E095F89C02022802D0BE
:1052500003283BD110E054B1802C08D021462846C9
:10526000FFF7D7FD80212846FFF7D3FD03E039463D
:105270002846FFF735F82EE0788820BB04F07F0041
:1052800018B121462846FFF708FB2846FFF766F8C5
:1052900021462846FFF706F80646FF2E13D096B99A
:1052A00000E0A8E0C5F8D46205F52E7050F826009D
:1052B000806840B105F52E7050F8260039468268A6
:1052C00028469047814606E007E08DE039462846AB
:1052D000FFF706F800BF00BF8BE095F89C0202289C
:1052E00002D0032879D126E034B1802C04D039468D
:1052F0002846FEF7F5FF75E004F08000802808D10D
:1053000004F07F0000EB800105F1140000EB810048
:1053100007E004F07F0000EB800105F5AA7000EBC8
:10532000810080460020C8F800000222414628463D
:10533000FFF703F856E004F0800080280ED104F057
:105340000F0000EB800105F1140000EB8100008AE2
:1053500098B939462846FEF7C3FF43E004F00F0032
:1053600000EB800105F5AA7000EB8100008A20B9EE
:1053700039462846FEF7B4FF34E004F08000802868
:1053800008D104F07F0000EB800105F1140000EB70
:10539000810007E004F07F0000EB800105F5AA70B2
:1053A00000EB810080460CB1802C03D10020C8F8AE
:1053B00000000CE021462846FFF7F0FB20B1012059
:1053C000C8F8000003E008E00020C8F8000002224E
:1053D00041462846FEF7B1FF04E039462846FEF76D
:1053E0007FFF00BF00BF04E039462846FEF778FF84
:1053F00000BF00BF04E039462846FEF771FF00BF3A
:1054000000BF4846BDE8F0872DE9F04106460D464D
:105410000027287800F0600030B1202802D0402812
:1054200047D100E000BF00BF96F89C02012804D0DD
:10543000022803D0032835D101E000BF00BF28793E
:10544000012822D829793046FEF72FFF0446FF2C89
:1054500014D09CB906F52E7050F82400806858B11D
:10546000C6F8D44206F52E7050F82400294682680A
:1054700030469047074602E0032700E00327E8880C
:1054800018B917B93046FEF769FF2878C12804D14A
:105490002946304600F016F809E029463046FEF766
:1054A0001FFF04E029463046FEF71AFF00BF00BF89
:1054B00004E029463046FEF713FF00BF00BF384620
:1054C000BDE8F081F8B506460C46A088042802D055
:1054D00005280ED106E0D6F8B402C16968468847AF
:1054E00005460BE0D6F8B402016A684688470546CF
:1054F00004E021463046FEF7F3FEF8BD00BFBDF8DC
:10550000000088B1E08878B1E088BDF800108842DA
:1055100002DDBDF8000000E0E0880090BDF800204A
:1055200029463046FEF709FF00BFE6E7014628207E
:1055300008800148704700003800002401468E2092
:1055400008800148704700006000002410B5044640
:10555000224603490348FFF739F9014810BD00000E
:10556000840400240A6500087047000001460148D1
:1055700070470000681B002470B504460B462246A5
:105580001978587801282CD140F61C0080581D78D5
:1055900005F00F060125B540ADB2284340F61C05C5
:1055A000A85002F5106000EB4110006800F40040C4
:1055B000F0BB1889C0F30A001D7940EA854040EA33
:1055C000815040F0805040F4004002F5106505EB3A
:1055D00041152D68284302F5106505EB411528603B
:1055E0002DE040F61C0080581D7805F00F060125BF
:1055F000B540144E06EA0545284340F61C05A85060
:1056000002F5306000EB4110006800F4004078B90A
:105610001889C0F30A001D7940EA854040F08050A7
:1056200040F4004002F5306505EB41152D6800E0BF
:1056300005E0284302F5306505EB411528600020A0
:1056400070BD00000000FFFF01460A464FF41060E5
:105650008058C30ADB024FF41060835040F6040008
:10566000805840F4807340F6040083500020704757
:105670000FB470B504469DF81900012818D1A06B2D
:1056800020F48030A063E0681F490840E060E068D3
:1056900020F44010E0609DF82000012803D1E0686C
:1056A00040F48010E060204600F032F8054613E038
:1056B000E06840F04000E060204600F029F8054630
:1056C0009DF81D0020B9A06B40F48030A06303E07A
:1056D000A06B20F48030A0639DF8160001280ED145
:1056E000E06D80B2E065E06D08490843E065A068C0
:1056F00040F00600A060A06840F02000A0602846AE
:1057000070BC5DF814FB0000BFFFBDFF0000EE039E
:1057100008B501460020009000BF0098401C009092
:105720000098B0F1706F01D9032008BD086900F03E
:1057300000400028F1D000200090086940F00100EE
:10574000086100BF0098401C00900098B0F1706F95
:1057500001D90320E9E7086900F001000028F1D130
:1057600000BFE2E770B504460B4622461978587828
:10577000012848D102F5106000EB4110006800F0EC
:105780000040B0F1004F17D102F5106000EB41105E
:10579000006840F0006502F5106000EB4110056004
:1057A00002F5106000EB4110006840F0804502F502
:1057B000106000EB4110056040F63C0080581D78F9
:1057C00005F00F060125B540ADB2A84340F63C05F3
:1057D000A85040F61C0080581D7805F00F060125E2
:1057E000B540ADB2A84340F61C05A85002F51060C4
:1057F00000EB411000682B4D284002F5106505EBC9
:10580000411528604BE002F5306000EB4110006864
:1058100000F00040B0F1004F17D102F5306000EB0E
:105820004110006840F0006502F5306000EB411067
:10583000056002F5306000EB4110006840F08045E3
:1058400002F5306000EB4110056040F63C008058E6
:105850001D7805F00F060125B540134E06EA0545F3
:10586000A84340F63C05A85040F61C00855818781F
:1058700000F00F060120B0400B4E06EA00408543C1
:1058800040F61C00855002F5306000EB41100068C6
:10589000064D284002F5306505EB411528600020D3
:1058A00070BD0000007833EC0000FFFF0078F3EFDC
:1058B00001460A46D2F8000E20F00300C2F8000E9E
:1058C00040F60400805820F0020340F604008350A4
:1058D0000020704701460A46D2F8000E20F003006F
:1058E000C2F8000E40F60400805840F0020340F673
:1058F00004008350002070470FB4F0B50546002720
:105900002E46002405E0002105F5827040F82410A1
:10591000641C0F2CF7D39DF82200A0B940F60400B8
:10592000805940F0020140F604008151A86B20F438
:105930000010A863286840F040002860286840F004
:105940008000286003E0A86B40F40010A8630020EA
:10595000C6F8000E9DF81D0001280CD19DF81B0013
:1059600020B90021284600F004FD08E00121284666
:1059700000F0FFFC03E00321284600F0FAFC1021B0
:10598000284600F0FCFB00B10127284600F0CFFBC1
:1059900000B1012700214FF401608151001D8151A8
:1059A00040F61C00815100242EE006F5106000EB4B
:1059B0004410006800F00040B0F1004F10D13CB935
:1059C0004FF0006106F5106000EB441001600DE03F
:1059D0004FF0904106F5106000EB4410016005E0C7
:1059E000002106F5106000EB44100160002106F56F
:1059F000106000EB441001614FF67F3106F5106036
:105A000000EB44108160641C9DF81800A042CCD8C3
:105A100000242EE006F5306000EB4410006800F032
:105A20000040B0F1004F10D13CB94FF0006106F5D5
:105A3000306000EB441001600DE04FF0904106F53E
:105A4000306000EB4410016005E0002106F5306095
:105A500000EB44100160002106F5306000EB4410BB
:105A600001614FF67F3106F5306000EB4410816034
:105A7000641C9DF81800A042CCD84FF401608059F6
:105A800020F480714FF4016081510020A8616FF013
:105A9000804068619DF81A0018B9A86940F01000AC
:105AA000A861A8690A490843A8619DF81E0018B1B9
:105AB000A86940F00800A8619DF82200012803D1E0
:105AC000A86904490843A8613846F0BC5DF814FB96
:105AD00000383C80040000400146886820F0010046
